:020000040800F2
:10000000808F002049010008051500083B0D0008FD
:1000100001150008F9080008A536000800000000D6
:10002000000000000000000000000000611E000849
:100030005D0900080000000099150008751F000800
:100040006301000863010008630100086301000800
:1000500063010008630100086301000863010008F0
:1000600063010008630100086301000863010008E0
:1000700063010008630100086301000863010008D0
:1000800063010008630100086301000863010008C0
:1000900063010008630100086301000863010008B0
:1000A00063010008630100086301000863010008A0
:1000B0006301000863010008630100086301000890
:1000C0006301000863010008630100086301000880
:1000D00063010008E93300086301000863010008B8
:1000E0006301000863010008630100086301000860
:1000F0006301000863010008630100086301000850
:1001000063010008751B0008630100086301000813
:10011000630100086301000863010008630100082F
:10012000630100086301000863010008630100081F
:10013000DFF810D000F02EFB00480047093C000813
:10014000AFF30080808F00200648804706480047B4
:10015000FEE7FEE7FEE7FEE7FEE7FEE7FEE7FEE777
:10016000FEE7FEE7B51F000831010008F0B480EAA1
:100170000102D40F4200B2EB410F02D20246084600
:1001800011464A0042D0C30DDDB2C1F3C752AD1AC9
:10019000202D35DAC1F3160141F4000204B15242B8
:1001A000C5F1200602FA06F12A411044B3EBD05FF4
:1001B00023D0C4B1012DA0EBC35009DCF0BC4FF03B
:1001C000004202EAC352DBB200F5000000F005BABB
:1001D000400000F1807000EBC350A0F1807040EA55
:1001E000D170490009E0490841EAC071A0EBC35051
:1001F00000F50000400800EBC350F0BC00F0E4B98B
:100200006142012202EB4101001BF6E7F0BC70479E
:1002100081F00041AAE780F00040A7E780EA0102F0
:1002200010B502F00043400022D04A001FD0010E5A
:1002300001EB1261C0F35600C2F3560240F4000015
:1002400042F40002A0FB022000047F39140400D015
:10025000401C50EA124001D44000491EC2B20C06B4
:1002600004EBD010401C4008802A02D003E000209C
:1002700010BD20F00100002900DA0020184310BD55
:1002800030B480EA010202F0004530F0004221F073
:10029000004013D090B1C30DD40DC2F31601C0F3CA
:1002A0001600E41A41F4000140F400027D3491424A
:1002B00001D3641C00E04900002C02DA30BC0020AD
:1002C00070474FF400000023914201D3891A034381
:1002D00040084FEA4101F7D151B1914202D14FF0AC
:1002E000004105E002D24FF0010101E06FF0010191
:1002F00003EBC450284430BC00F066B92DE9FE4F32
:1003000081EA030404F0004421F0004100944FF01E
:10031000000B23F0004350EA01045ED052EA0304CC
:100320005BD0C3F30A54C1F30A552C44A4F2F3344E
:100330000194A0FB0254C1F3130141F48011C3F3F3
:10034000130343F4801301FB024400FB034E840AB1
:10035000970A44EA815447EA8357A4FB0768029549
:100360008D0A05FB07854FEA932C04FB0C542705E7
:10037000029D4FEA065847EA1637B5EB08056EEBC3
:10038000070C870E920E47EA811742EA8312A7FBF9
:100390000201B6EB0B0164EB00042B0D43EA0C33B6
:1003A0005E1844EB1C50DA465146E7FB0201C5F3E8
:1003B00013044FEA0B3343EA14534FEA0432019C0F
:1003C00043EA0603A4F10C040294009CCDE900B4B6
:1003D00000F040F903B0BDE8F08F00200146F9E7D6
:1003E000C10F80EAE0700844CA079623002100F09C
:1003F000F4B896230022114600F0EFB80EB540F293
:10040000334102910021CDE900110A460B4600F06C
:1004100021F903B000BD00F0004220F00040C10D02
:10042000C0F3160040F400007F2901DA0020704775
:10043000962903DCC1F19601C84001E09639884055
:10044000002AF4D04042704720F00040C10DC0F3B4
:10045000160040F400007F2901DA00207047962939
:1004600003DCC1F19601C840704796398840704757
:10047000C1F30A5210B5C1F3130140F2FF3341F446
:1004800080119A4201DA002010BD40F233439A42B3
:10049000A2F2334203DC524200F086F810BD9040D5
:1004A00010BD00F0004230F000400AD0C10D01F54F
:1004B0006071C0F3160042EA0151C20840071143BF
:1004C000704700200146704730B5041E71F10004EA
:1004D00004DB4FF00044404264EB0101141E73F151
:1004E000000405DB1C464FF00043524263EB04035B
:1004F0008B4208BF824230BD30B5041E71F100044A
:1005000004DB4FF00044404264EB0101141E73F120
:10051000000405DB1C464FF00043524263EB04032A
:10052000994208BF904230BD2DE9F05F054600209A
:1005300092469B4688460646814640241BE0284654
:1005400041464746224600F02FF853465A46C01A05
:10055000914110D311461846224600F016F82D1A84
:1005600067EB01084F4622460120002100F00DF8FC
:1005700017EB00094E41201EA4F10104DFDC4846C0
:1005800031462A464346BDE8F09F202A04DB203A44
:1005900000FA02F1002070479140C2F1200320FAD6
:1005A00003F3194390407047202A04DB203A21FAD4
:1005B00002F00021704721FA02F3D040C2F120027C
:1005C00091400843194670470029A8BF7047401C56
:1005D000490008BF20F00100704710B4B0FA80FC59
:1005E00000FA0CF050EA010404BF10BC704749B196
:1005F000CCF1200421FA04F411FA0CF118BF012106
:1006000021430843A3EB0C01CB1D4FEA00614FEAE5
:10061000102042BF002010BC704700EBC3501044B4
:100620000029A4BF10BC7047401C490008BF20F03F
:10063000010010BC704710B5141E73F1000408DAF5
:10064000401C41F1000192185B411A4301D120F096
:10065000010010BD2DE9F04D92469B4611B1B1FA53
:1006600081F202E0B0FA80F220329046FFF78DFF6F
:1006700004460F4640EA0A0041EA0B0153465A4637
:10068000084313D0114653EA010019D0C8F14002C3
:100690005046FFF789FF05460E46504659464246EA
:1006A000FFF773FF084305D0012004E020463946D8
:1006B000BDE8F08D0020054346EAE0762C43374341
:1006C0000A986305E40AA0EB08000022FD0A44EA48
:1006D00047540A3002D500200146E9E70105101908
:1006E0006941DDE9084500196941BDE8F04DA2E71F
:1006F0002DE9F04D00231A461B1A8A4103DB002026
:100700000146BDE8F08DC1F30A52C1F3130141F473
:1007100080154FF0000BD10702D100186D41521E19
:100720000027044640F2FF11384601EB620A3E46BC
:100730008046024600204FF48011FFF735FFC219B2
:100740007141BB1846EB0100B4EB030C75EB000CD8
:1007500004D3E41A65EB000517460E46241908F188
:1007600001006D4180463428E3DDF91946EB0600AF
:10077000091BA84103D24FF0FF32134601E00022CB
:1007800013461BEB070046EB0A51BDE8F04DFFF79F
:1007900052BF0000064C074D06E0E06840F0010340
:1007A00094E8070098471034AC42F6D3FFF7C4FC36
:1007B000608700088087000810B500F0DDFA10BDE2
:1007C0002DE9F04107460C460026002509E03602D7
:1007D0003919491B491E88B200F008F80644681C04
:1007E000C5B2A542F3DB3046BDE8F08170B50446E2
:1007F000002600F057FB2546E11704EB11610912B2
:10080000A02202EB4101C8B200F024FB00F082FB01
:10081000E11704EB11610912A4EB0121C8B200F049
:1008200019FB00F077FB00F03DFBA12000F012FB6C
:1008300000F070FB002000F0E1FA064600F04EFBED
:10084000304670BD2DE9F04105460E46174600249E
:1008500009E0E20026FA02F2D1B22A1990B200F0C1
:1008600006F8601CC4B2BC42F3DBBDE8F08170B591
:1008700004460E4600F016FB2546E11704EB116115
:100880000912A02202EB4101C8B200F0E3FA00F025
:1008900041FBE11704EB11610912A4EB0121C8B27D
:1008A00000F0D8FA00F036FB304600F0D3FA00F042
:1008B00031FB00F013FB0A2003F048F970BD000083
:1008C00008B50146002000900348009000980844B5
:1008D00000900098008808BD006C004008B5002218
:1008E0000092044A0092009A02440092009A116019
:1008F00008BD0000006C004000BFFEE770B5044674
:1009000005E01548456B05F0450000B100E0F8E74B
:1009100000BF042001F022F9012804D1042001F0D5
:1009200011F9032070BD012001F018F9012803D14D
:1009300001F008F90120F5E701F00AF9A04201D021
:100940001020EFE740F2FF500349886308464069F2
:1009500008210840C0B2E5E7008001407047000070
:1009600038B54EF617740121080200F037FE8020DA
:10097000ADF8000069460B4800F052F980210948A3
:1009800000F0D9F901200849086001F0E1F90020E0
:1009900001F052FA00F018F80446214603A002F0D4
:1009A00083FE38BD00200140B0812142CAB9D3C3C3
:1009B000B5C4464C415348D0BEC6AC4944CAC7A38F
:1009C000BA25580D0A00000010B5002400200E4979
:1009D0000860902001F014FA002001F011FA0020C4
:1009E00001F00EFA002001F00BFAFF2001F008FAE6
:1009F00044EA0024FF2001F003FA044301200349E4
:100A0000C1F8B001204610BDB081214200802142D2
:100A100051B18200A2F1C042126842F0010382008B
:100A2000A2F1C042136009E08200A2F1C042126844
:100A3000034B1A408300A3F1C0431A6070470000C3
:100A4000FEFF0F00D0E901121143C2681143026991
:100A500011434269114382691143C2691143026A19
:100A60001143426A1143826A1143C26A1143026B05
:100A7000114302689200A2F1C04211608168082906
:100A80000BD101688900A1F1C041096841F0400221
:100A900001688900A1F1C0410A60416B0968426B9D
:100AA000526841EA0211426B926841EA0221426BAC
:100AB000928941EA0241426B128A41EA0251426B39
:100AC000127D41EA0261426B926911430268521C35
:100AD0009200A2F1C0421160C16AB1F5804F1BD1F2
:100AE000816B0968826B526841EA0211826B9268DD
:100AF00041EA0221826B128A41EA0251826B127D25
:100B000041EA0261826B9269114302689200A2F18C
:100B1000C042C2F8041107E06FF07042016889001A
:100B2000A1F1C041C1F804217047000000B597B0A1
:100B300001214FF4F07000F051FD0121080200F096
:100B40002DFD03208DF85A004FF48060ADF8580059
:100B500018208DF85B0016A92D4800F061F80320DD
:100B6000ADF8580016A92B4800F05AF83020ADF81F
:100B7000580016A9284800F053F84FF60370ADF856
:100B8000580016A9244800F04BF84FF68070ADF8D5
:100B9000580016A91F4800F043F84FF23F00ADF887
:100BA000580016A91D4800F03BF83F20ADF858004A
:100BB00016A9174800F034F8002000900190082092
:100BC0000290002003900490059006900420079066
:100BD00000200890099010200A9000200B900D90A2
:100BE0000C900E900F904FF48050109000201190B8
:100BF00012901390CDF850D0CDF854D007A8FFF73D
:100C000021FF01210420FFF703FF17B000BD000002
:100C1000002001400018014000140140001C014068
:100C20002DE9F04102460025002600200023002483
:100C3000002791F803C00CF00F0591F803C00CF0E9
:100C4000100CBCF1000F03D091F802C04CEA05056E
:100C500091F800C0BCF1000F31D0146800202BE0E7
:100C60004FF0010C0CFA00F3B1F800C00CEA0306D7
:100C70009E4220D183004FF00F0C0CFA03F7BC43C7
:100C800005FA03FC4CEA040491F803C0BCF1280FF8
:100C900006D14FF0010C0CFA00FCC2F814C00AE0B7
:100CA00091F803C0BCF1480F05D14FF0010C0CFACC
:100CB00000FCC2F810C0401C0828D1D31460B1F861
:100CC00000C0BCF1FF0F34DD546800202EE000F1BD
:100CD000080C4FF0010808FA0CF3B1F800C00CEA58
:100CE00003069E4221D183004FF00F0C0CFA03F74C
:100CF000BC4305FA03FC4CEA040491F803C0BCF1C0
:100D0000280F05D100F1080C08FA0CF8C2F814807D
:100D100091F803C0BCF1480F07D100F1080C4FF067
:100D2000010808FA0CF8C2F81080401C0828CED33D
:100D30005460BDE8F0810161704700BFFEE700002C
:100D400010B500200A49086000F0EAFE00200949B9
:100D5000C1F89C01022002F01FFF01200449086035
:100D6000052002F019FF00200249C1F8980110BDCA
:100D7000988121420080214208B50121082000F01D
:100D80002DFC4020ADF8000003208DF8020010205B
:100D90008DF8030069460848FFF742FF8020ADF850
:100DA000000069460448FFF73BFF01200349086043
:100DB0000349C1F89C0108BD000C01409881214203
:100DC0000080214210B500200A49086000F0A8FE0A
:100DD00001200949C1F89C01022002F0DDFE01203A
:100DE00004490860052002F0D7FE00200249C1F83E
:100DF000980110BD988121420080214270B50546BE
:100E0000002400F07FFE002616E000200F49086055
:100E1000022002F0C1FE01200D49C1F898016006D0
:100E2000040E0A487C38006808B1601CC4B2012076
:100E300002F0B2FE701CC6B2082EE6DB15B9FFF751
:100E4000C1FF01E0FFF77CFF204670BD9881214281
:100E50000080214270B5044600F062FE00200F4978
:100E60000860002517E0E0090C49091D08606006CC
:100E7000040E022002F090FE01200949C1F89801F9
:100E8000022002F089FE002004490860022002F0DE
:100E900083FE681CC5B2082DE5DB70BD9881214238
:100EA0000080214210B500F03BFE01200949086096
:100EB0000949C1F89801052002F06EFE002005499D
:100EC0000860062002F068FE00200349C1F898017E
:100ED00010BD00009C8121420080214210B500F02D
:100EE0001FFE0020094908600949C1F89C01012042
:100EF00006490860062002F04FFE01200449C1F8AF
:100F00009C01062002F048FE10BD0000988121429D
:100F10000080214210B5002401200F49086002F032
:100F20003BFE00F0EFFD01200C49C1F8980102F0F2
:100F300033FE07E0601CC4B2FA2C03DDFFF7CEFFDE
:100F4000012010BD0448803800680028F2D1024911
:100F5000091F086000BFF4E79C8121420080214204
:100F600008B50121442000F039FB0120ADF8000054
:100F700028208DF8030069460648FFF751FE1C2023
:100F8000ADF8000048208DF8030069460248FFF7DD
:100F900047FE08BD000801400018014070B5064634
:100FA0000F484088401E83B20D480088401E82B220
:100FB0000021084600F007F900240CE0002504E0B9
:100FC000304600F071FA681C85B205484088A84296
:100FD000F6DC601C84B202480088A042EEDC70BDE2
:100FE0001C00002000B502460F4882716AB9362005
:100FF00000F04EFA002000F051FA4FF4F0700A4968
:1010000048804FF4A07008800CE0362000F040FAD1
:10101000602000F043FA4FF4A070034948804FF479
:10102000F070088000BD00001C00002070B5044670
:101030000D4616462B4622462946204600F0C3F8A8
:10104000304600F031FA70BD2DE9FF4F84B0814683
:101050008A460020039002900698A0EB09050798A5
:10106000A0EB0A06CDF80490CDF800A0002D01DD1C
:10107000012705E00DB9002702E04FF0FF376D4270
:10108000002E02DD4FF0010806E016B94FF000080F
:1010900002E04FF0FF387642B54201DD2C4600E019
:1010A00034464FF0000B21E0009A91B2019A90B2C1
:1010B00000F022F8039828440390029830440290EC
:1010C0000398A04205DD0398001B03900198384463
:1010D00001900298A04205DD0298001B0290009842
:1010E000404400900BF101001FFA80FB601C834517
:1010F000DADD08B0BDE8F08F30B504460D462B466A
:1011000022462946204600F05EF80248008800F09A
:10111000CBF930BD180000202DE9F04306460F46FC
:101120009046002445460320A0EB48093CE07A1B8A
:1011300091B2321990B2FFF7DFFF3A1B91B27219E8
:1011400090B2FFF7D9FF3A1991B2721990B2FFF736
:10115000D3FF7A1991B2321990B2FFF7CDFF7A1905
:1011600091B2321B90B2FFF7C7FF3A1991B2721BCE
:1011700090B2FFF7C1FF7A1B91B2321B90B2FFF71A
:10118000BBFF3A1B91B2721B90B2FFF7B5FF641C14
:10119000B9F1000F03DAA000801D814404E0601B58
:1011A00080000A3081446D1EAC42C0DDBDE8F08392
:1011B00010B50246012000E050430B1EA1F10104CE
:1011C000E1B2F9D110BD70B504460D462A2000F0F9
:1011D0005FF92646E11704EB1161C1F30F2000F01F
:1011E0005DF9E11704EB11610912A4EB012188B24A
:1011F00000F054F91646D11702EB1161C1F30F202C
:1012000000F04CF91646D11702EB11610912A2EB5E
:10121000012188B200F042F92B2000F039F92E4666
:10122000E91705EB1161C1F30F2000F037F9E91759
:1012300005EB11610912A5EB012188B200F02EF92E
:101240001E46D91703EB1161C1F30F2000F026F9F8
:101250001E46D91703EB11610912A3EB012188B2D5
:1012600000F01CF92C2000F013F970BD2DE9F84FA7
:1012700080460E4617461C46B3462046E31704EB4D
:101280005373DB1021464FEAE47C04EB5C7C4FEAAD
:10129000EC0CA4EBCC0CBCF1000F02D04FF0010C15
:1012A00001E04FF0000C6344224604EBD27C4FEA8D
:1012B0006C0C03FB0CF3DBB20093A7F12000C7B268
:1012C000002556E00C2C07D107EB47002B4901EB1A
:1012D000800010F8059013E0102C05D1284800EB91
:1012E000071010F805900BE0182C07D107EBC7008A
:1012F000244901EB800010F8059001E0BDE8F88F6B
:101300004FF0000A2FE009F0800030B11E4802883B
:1013100031464046FFF78AFE07E00A9828B91B4885
:10132000028831464046FFF781FE4FEA49604FEAA6
:101330001069701C86B216484088B04200DCDDE7B8
:10134000A6EB0B00A0420AD15E4608F101001FFA8D
:1013500080F80F480088404500DCCFE706E00AF13E
:10136000010000F0FF0ABAF1080FCCDB00BF681CD7
:10137000C5B200988542A5DB00BFBFE7B03D0008BD
:101380002442000814480008180000201A00002019
:101390001C0000202DE9FF4F81B0074691461E46F4
:1013A0000E9D4FF0000A002439E0301B401EC1B2F0
:1013B0000A20FFF7FDFEB9FBF0F00A21B0FBF1F2C5
:1013C00001FB1208BAF1000F16D1701EA04213DD06
:1013D000B8F1000F0ED10020AB4605EBDB714910D0
:1013E00001FB0471009088B22B4620220299FFF77E
:1013F0003DFF12E04FF0010A0020AB4605EBDB7128
:10140000491001FB0471009088B208F13001CAB2A2
:101410002B460299FFF72AFF00BF601CC4B2B442FA
:10142000C3DB05B0BDE8F08F2DE9F84704460D4653
:1014300090469946DDE9096704F0FF0A08EB0400CD
:101440001FFA80F809EB05001FFA80F916E0444501
:1014500002DB5446A81985B24D4500DB14E000209C
:1014600000903A78334629462046FFF7FFFE304683
:1014700006EBD07104EB61018CB27F1C38787E28BA
:1014800002DC38782028E2DA00BFBDE8F8870000E7
:101490000149088070470000FE07006C0149088080
:1014A000704700000008006C014908807047000088
:1014B0000008006C08B50121482000F08FF82020BA
:1014C000ADF8000010208DF8030003208DF8020015
:1014D00069460948FFF7A4FB20210748FFF72BFCCA
:1014E0002020ADF8000069460448FFF799FB202151
:1014F0000248FFF720FC08BD000C01400018014025
:1015000000BFFEE77047000070B5002100230F22E6
:10151000C47804B3154C246804F4E064C4F5E064B2
:10152000210AC1F10403CA40447804FA03F1847823
:101530001440214309010E4C0678A155047804F0AB
:101540001F050124AC4005786D11AD0005F1E025C3
:10155000C5F8004109E0047804F01F050124AC40FF
:10156000044D0678761145F8264070BD0CED00E07C
:1015700000E400E080E100E002490143024A11601A
:10158000704700000000FA050CED00E00149086218
:101590007047000000000E427047000029B1064A63
:1015A00052690243044B5A6104E0034A5269824380
:1015B000014B5A61704700000010024029B1064AF1
:1015C000D2690243044BDA6104E0034AD2698243E0
:1015D000014BDA61704700000010024029B1064A51
:1015E00092690243044B9A6104E0034A9269824380
:1015F000014B9A61704700000010024030B5002195
:101600000022002400232D4D6D6805F00C0121B14E
:10161000042905D0082923D105E0294D056022E0E1
:10162000274D05601FE0254D6D6805F47012234DB0
:101630006D6805F48034022505EB92421CB9214DFA
:10164000554305600BE01D4D6D6805F400351DB177
:101650001C4D5543056002E0194D5543056002E0FD
:10166000174D056000BF00BF144D6D6805F0F00117
:101670000909154D6B5C0568DD4045600F4D6D68CF
:1016800005F4E061090A104D6B5C4568DD4085603A
:101690000A4D6D6805F46051C90A0B4D6B5C4568D5
:1016A000DD40C560054D6D6805F44041890B074D6F
:1016B0006B5CC568B5FBF3F5056130BD00100240F9
:1016C00000127A0000093D000000002010000020F8
:1016D00010B501460022002300204A11012A02D140
:1016E000094C236806E0022A02D1074C236A01E074
:1016F000054C636A01F01F02012494401C400CB1A8
:10170000012000E0002010BD0010024000210B4A23
:1017100011700A4A203A82F82010012802D00428C9
:1017200008D103E00121054A117004E00521034AB4
:10173000117000E000BF00BF7047000020100240A1
:1017400001490860704700003C0442420249096AAE
:101750000143014A116270470010024003480088AB
:1017600040F0100001490880704700000428004044
:10177000034800884FF6EF71084001490880704720
:10178000042800402DE9FC41064601214FF0C050DD
:10179000FFF714FF0120FFF7F9FE00F08BF8074672
:1017A0004248B7FBF0F4002C35D040F2B27510E09F
:1017B000284600F089F940B1B4F5B77F04D3A4F509
:1017C000B774681C85B204E006E0A4F26D14681CCE
:1017D00085B2B4F5B67FEBD800BFADF80050601C01
:1017E0001FFA80F80025BDF8000000F06DF910B177
:1017F0001D202F49487004E02D48405D241A681CC4
:1018000085B21C2CF8D2681CC0B28DF80200601C96
:10181000C0B28DF803002548B7FBF0F100FB11744E
:101820004FF46160B4FBF0F0C0B28DF804004FF4E7
:101830006160B4FBF0F100FB11403C21B0FBF1F022
:10184000C0B28DF805004FF46160B4FBF0F100FB0D
:1018500011403C21B0FBF1F201FB12008DF80600B3
:101860000025BDF80010491E642291FBF2F2BDF87C
:101870000010481EC11700EB91718B10BDF80010CD
:10188000491E19448A1ABDF80010491E4FF4C87346
:1018900091FBF3F1114441448DB2E8B28DF8070099
:1018A0000098306001987060BDE8FC8180510100B3
:1018B0006E000020002103480188001F008841EAD3
:1018C000004070471C28004029B1064A1288024394
:1018D000044B1A8004E0034A12888243014B1A80A9
:1018E000704700000028004010B5002401214FF08F
:1018F000C050FFF763FE0120FFF748FE0420FEF70B
:10190000DFFFB0F57F4F36D00120FFF7FFFE04E088
:10191000601CC4B20A2002F019F94120FFF7D8FE7A
:1019200008B9FA2CF4DBFA2C01DB012010BD4FF4CE
:101930008070FFF70BFF0120FFF702FF00F0A8F80F
:1019400000F0B0F801210846FFF7BEFF00F0A0F854
:10195000FFF704FF47F6FF7000F024F800F098F856
:10196000002000F011F8FFF703FF4FF47F4104203F
:10197000FEF7B4FF03E000F095F800F089F80020CE
:10198000FFF704FE0020D1E700B50246FFF7E6FEB0
:10199000100C03490880091D0A80FFF7E9FE00BD0D
:1019A0001828004000B50246FFF7D8FEC2F30340F6
:1019B00003490880091D0A80FFF7DAFE00BD000018
:1019C000082800402DE9F05F06460F4690469946EC
:1019D000DDE90AAB40F2B270864203DB40F6330029
:1019E000864202DD0120BDE8F09F40F2B2750AE0B8
:1019F000284600F069F810B12248044401E022486A
:101A00000444681C85B2B542F2DB304600F05CF855
:101A100010B11D201D494870002508E01B48405D9D
:101A200040F2A321484304EBC014681C85B2781E21
:101A3000A842F3DC1C2015494870A8F1010040F2CF
:101A4000A321484304EBC014C9EB4910C0EB0920A3
:101A500004EB0014CAEB0A1004EB80045C4401217F
:101A60004FF0C050FFF7AAFD0120FFF78FFD204681
:101A7000FFF78AFF00F00CF80020FFF787FD002039
:101A8000B1E700000085E2018033E1016E00002033
:101A900000BF0348008800F020000028F9D07047FC
:101AA00004280040074800884FF6F77108400549B0
:101AB000088000BF0348008800F008000028F9D023
:101AC00070470000042800400146CA1701EB9272DB
:101AD0009210A1EB820292B9642091FBF0F200FB1C
:101AE000121050B94FF4C87091FBF0F200FB1210C5
:101AF00008B9012070470020FCE70120FAE7002028
:101B0000F8E7000008B58020ADF8000048208DF807
:101B1000030069460148FFF783F808BD000C014047
:101B200008B58020ADF8000003208DF802001020D9
:101B30008DF8030069460248FFF772F808BD0000FF
:101B4000000C01400149886370470000008001409B
:101B500001480069C0B27047008001400146002082
:101B6000034A526B0A400AB1012000E0002070478E
:101B70000080014010B500F017F810BD0021094B9E
:101B800002689A601A46D1686FF30A01D0E901230E
:101B90001A43C3681A4303691A431143014AD160C7
:101BA000704700000080014010B54848406B00F4C9
:101BB000807060B346480078012814D10020454960
:101BC00008600C204860402088600020C8604FF406
:101BD000806008610846FFF7D1FF0C20FEF78EFEFB
:101BE0003D49087002E000203B4908704FF48070C6
:101BF000FFF7A8FF3548C06B4CF23A3188433349B0
:101C0000C8630120354908703348007810BD0220B0
:101C1000FFF7A4FF68B10220FFF794FF2B48C06BC9
:101C20004CF23A3188432949C86302202A49087096
:101C3000ECE70820FFF792FF68B10820FFF782FF6A
:101C40002248C06B4CF23A3188432049C8630420D3
:101C500021490870DAE72020FFF780FF68B12020D3
:101C6000FFF770FF1948C06B4CF23A3188431749AF
:101C7000C863062018490870C8E71020FFF76EFFF8
:101C800068B11020FFF75EFF1048C06B4CF23A318C
:101C900088430E49C86305200F490870B6E74FF422
:101CA0000070FFF75BFF70B14FF40070FFF74AFF61
:101CB0000648C06B4CF23A3188430449C863072098
:101CC00005490870A2E70020A0E70000008001405D
:101CD000A1000020D8880020A3000020A20000203E
:101CE00021B1028842F04002028004E002884FF6EF
:101CF000BF731A40028070470246002013890B40D0
:101D00000BB1012000E00020704701468889704730
:101D10008181704710B50022028802F441520B887D
:101D20004C8823438C882343CC8823430C8923434A
:101D30004C8923438C892343CC8923431A43028053
:101D4000838B4FF2FF74234083830B8A038210BD81
:101D500000B587B001210820FFF740FC012188036E
:101D6000FFF72CFC4FF46040ADF8180018208DF8F8
:101D70001B0003208DF81A0006A91F48FEF750FF2C
:101D80004FF48050ADF8180010208DF81B00032090
:101D90008DF81A0006A91848FEF742FF4FF480514B
:101DA0001548FEF7C8FF0020ADF804004FF482701C
:101DB000ADF806000020ADF808000220ADF80A00DA
:101DC0000120ADF80C004002ADF80E003820ADF84F
:101DD00010000020ADF812000720ADF8140001A992
:101DE0000648FFF797FF01210448FFF779FFFF201E
:101DF00000F006F807B000BD000C014000380040BC
:101E000010B5044600BF02210A48FFF775FF0028FD
:101E1000F9D021460748FFF77BFF00BF01210548A5
:101E2000FFF76AFF0028F9D00248FFF76EFFC0B243
:101E300010BD00000038004010B504460748008877
:101E40004FF6C771084005490880084600882043BE
:101E5000088001210148FFF743FF10BD0038004012
:101E6000704710B500F002F810BD00000CB500205E
:101E7000019000903348006840F480303149086098
:101E800000BF3048006800F4003000900198401C0A
:101E90000190009818B90198B0F5A06FF1D12948C8
:101EA000006800F4003010B10120009001E0002033
:101EB00000900098012843D12348006840F01000AA
:101EC000214908600846006820F0030008600846C1
:101ED000006840F0020008601A48406819494860EC
:101EE0000846406848600846406840F480604860A2
:101EF0000846406820F47C1048600846406840F47A
:101F0000E81048600846006840F08070086000BF34
:101F10000C48006800F000700028F9D009484068BB
:101F200020F00300074948600846406840F002007E
:101F3000486000BF0348406800F00C000828F9D151
:101F40000CBD00000010024000200240042808D10F
:101F50004FF0E021096941F004014FF0E0221161E6
:101F600007E04FF0E021096921F004014FF0E02281
:101F7000116170477047000010B504466FF004000F
:101F8000FFF7E4FFE11704EB5171C1F3C701074A02
:101F900011701046007800EB4001C1EBC0104FF605
:101FA000FF7101EAC0000249088010BD1400002042
:101FB0001600002010B51348006840F001001149D8
:101FC000086008464068104908400E4948600846C5
:101FD00000680E4908400B4908600846006820F474
:101FE000802008600846406820F4FE0048604FF4F6
:101FF0001F008860FFF735FF4FF00060044908605C
:1020000010BD0000001002400000FFF8FFFFF6FEC8
:1020100008ED00E010B54820FFF7AEFF4FF4A060D8
:10202000FFF7AAFA4FF4E13001F0E4FAFFF75CFCA5
:10203000FFF740FAFEF794FFFEF7BEFB00F09AF8B8
:1020400000F086FFFEF772FD002001F03FFE012048
:1020500001F03CFEFFF77CFEFEF782FC10BD00B5F0
:102060009DB001210802FFF799FA01200790002096
:1020700008900F20099000200A900B900C900D9072
:1020800015200090019005200290002003900490FC
:102090000590069006200E9000200F9010901020C2
:1020A00011900020129014901390159016904FF4F8
:1020B00080501790002018904FF480401990002015
:1020C0001A9007A81B90CDF870D00EA8FEF7BAFCA6
:1020D00001210620FEF79CFC1DB000BD08B50121C2
:1020E0004FF4B470FFF77AFA4CF23370ADF8000099
:1020F00018208DF8030003208DF802006946184867
:10210000FEF78EFD4FF68070ADF8000018208DF8B8
:10211000030003208DF8020069461248FEF780FD97
:1021200041F20100ADF8000018208DF803000320F3
:102130008DF8020069460C48FEF772FD0120ADF8EB
:10214000000010208DF8030003208DF8020069467E
:102150000648FEF765FD01200549086008BD00003E
:10216000001401400018014000200140000C014013
:102170008081214210B5FFF7B1FFFFF770FF3220D9
:1021800001F0E4FCD320FFF783F9A3480088A349BA
:102190008880A148008888809F48008888800846F9
:1021A00080884FF6FF7101EA00209C49888008462C
:1021B0008088994909880843984988800846818819
:1021C00097A001F071FAFF20FFF762F9FF20FFF7F7
:1021D0005FF9052001F0BAFCFF20FFF759F9FF2055
:1021E000FFF756F9FF20FFF753F9FF20FFF750F9EB
:1021F0000A2001F0ABFCB020FFF74AF90020FFF7FE
:102200004DF9B320FFF744F90220FFF747F900200A
:10221000FFF744F90020FFF741F90020FFF73EF9EE
:10222000C020FFF735F91320FFF738F93B20FFF7FF
:1022300035F90020FFF732F90020FFF72FF90020D1
:10224000FFF72CF90120FFF729F90020FFF726F905
:102250004320FFF723F9C120FFF71AF90820FFF701
:102260001DF91B20FFF71AF90820FFF717F90820BE
:10227000FFF714F9C420FFF70BF91120FFF70EF94F
:102280000120FFF70BF97320FFF708F90120FFF792
:1022900005F9C620FFF7FCF80020FFF7FFF8C8207B
:1022A000FFF7F6F80F20FFF7F9F80520FFF7F6F82B
:1022B0001420FFF7F3F85C20FFF7F0F80320FFF796
:1022C000EDF80720FFF7EAF80720FFF7E7F81020FE
:1022D000FFF7E4F80020FFF7E1F82320FFF7DEF82E
:1022E0001020FFF7DBF80720FFF7D8F80720FFF7EB
:1022F000D5F85320FFF7D2F80C20FFF7CFF81420C1
:10230000FFF7CCF80520FFF7C9F80F20FFF7C6F854
:102310002320FFF7C3F80020FFF7C0F83520FFF7B0
:10232000B7F80020FFF7BAF84420FFF7B1F8002013
:10233000FFF7B4F80120FFF7B1F8D020FFF7A8F8B5
:102340000720FFF7ABF80720FFF7A8F81D20FFF7DD
:10235000A5F80320FFF7A2F8D120FFF799F8032092
:10236000FFF79CF85B20FFF799F81020FFF796F82D
:10237000D220FFF78DF80320FFF790F82420FFF715
:102380008DF80420FFF78AF82A20FFF781F8002053
:10239000FFF784F80020FFF781F80120FFF77EF8AF
:1023A0003F20FFF77BF82B20FFF772F80020FFF7A4
:1023B00075F80020FFF772F80120FFF76FF8DF20B3
:1023C000FFF76CF83620FFF763F80020FFF766F898
:1023D000C020FFF75DF81320FFF760F83A20FFF701
:1023E00057F85520FFF75AF81120FFF751F89620BB
:1023F00001F0ACFB2920FFF74BF81E2001F0A6FBF3
:102400002C20FFF745F80020FEF7ECFD4FF6FF709B
:10241000FEF7C4FD10BD00000008006C1C00002089
:10242000204C43442049443A25780D0A000000001E
:102430002DE9FC5F04460D4617461E46DDE90EAB4E
:10244000DDE90C894FF478405749088057A01021E6
:10245000CDE90010564843880288A0212820FEF7C5
:10246000E3FF54A01021CDE90010514843880288B1
:10247000A0217820FEF7D8FF4FA01021CDE9001051
:102480004B4843880288B4212820FEF7CDFF4BA09B
:102490001021CDE90010464843880288B4217820F5
:1024A000FEF7C2FF46A01021CDE900104048438846
:1024B0000288C8212820FEF7B7FF42A01021CDE9ED
:1024C00000103B4843880288C8217820FEF7ACFF03
:1024D0003DA01021CDE90010354843880288DC2159
:1024E0002820FEF7A1FF39A01021CDE900103048C7
:1024F00043880288DC217820FEF796FF34A0102163
:10250000CDE900102A4843880288F0212820FEF7F0
:102510008BFF102004232246A02100904020FEF7CC
:1025200039FF102004232A46A02100909020FEF7B6
:1025300031FF102004233A46B42100904020FEF7DA
:1025400029FF102004233246B42100909020FEF78A
:1025500021FF102004234246C82100904020FEF7AE
:1025600019FF102004234A46C82100909020FEF74E
:1025700011FF102004235246DC2100904020FEF77A
:1025800009FF102004235A46DC2100909020FEF71A
:1025900001FF102003230090F0216020109AFEF725
:1025A000F9FEBDE8FC9F00001800002078313A00D9
:1025B0001C00002079313A0078323A0079323A0032
:1025C00078333A0079333A0078343A0079343A0073
:1025D0006661632069733A0000B597B000201290DD
:1025E0000B9012901F20FE4908804FF6FF70FD49A6
:1025F0000880FEF7D3FC4FF47840F94908804FF685
:10260000FF70FEF7CBFC0020F5490880F648006813
:1026100010216423A022CDE9001028210846FEF7EE
:1026200003FF4FF478421421084600F003FC002019
:10263000EE4988868863D0E3EC4840680A90012020
:102640000A998847E94890F8340000F0C000402813
:102650007AD100200B90E548808E20F04000E349BD
:1026600088860846818913AA129822F82010DF482C
:10267000018C129802EB800041801298401CC0B27D
:1026800012901298012806D0022815D0032829D0CC
:10269000042810D141E04FF6FF721421084600F0E3
:1026A000C9FBD3480088143880B24FF47842142113
:1026B0000A9000F0BFFB80E3CD480088143880B258
:1026C0004FF6FF7214210A9000F0B4FBC84840880E
:1026D000143880B24FF4784201460A90142000F07A
:1026E000A9FB6AE3C2484088143880B24FF6FF72F3
:1026F00001460A90142000F09DFBBD484088143824
:1027000080B20A90BA480088143880B24FF47842F8
:1027100009900A9900F08EFB4FE3BDF84C00BDF81C
:102720005010401A0A90002801DB0A9801E00A982C
:1027300040420F90BDF84E1013A8C088081A0A90A6
:10274000002802DB0A9802E038E30A9840420E9023
:102750000F9840430F900E9840430E90DDE90E1005
:1027600008440590FDF74AFECDE9060101F0FAFAAA
:10277000CDE90801FDF77CFE80B21190BDF8540050
:10278000BDF85810401A0A90002801DB0A9801E0B1
:102790000A9840420F9013A84189C089081A0A90EC
:1027A000002801DB0A9801E00A9840420E900F9839
:1027B00040430F900E9840430E90DDE90E10084400
:1027C0000590FDF71BFECDE9060101F0CBFACDE93E
:1027D0000801FDF74DFE80B210901098FDF709FE3C
:1027E00009901198FDF705FE08900999FDF748FD3D
:1027F0000A90FDF756FECDE90C014FF066327D4B95
:10280000DDE90C01FDF760FE0AD37B4A7B4BDDE975
:102810000C01FDF771FE03D3119808B11098E8BBC5
:102820000020129072484088143880B20A90704894
:102830000088143880B24FF6FF7209900A9900F0B0
:10284000F9FA4FF478421421084600F0F3FA002216
:102850006B4BDDE90C01FDF751FDCDE90801FDF7FA
:1028600007FE80B213A90A90C989BDF8582013AB9E
:102870005B89CDE90132CDE90310BDF85400009029
:1028800013A8C0880990BDF850000890BDF84E000C
:102890000790BDF84C00069007A900E003E00EC9C0
:1028A000FFF7C6FD99E2BDF84C00BDF85410401A80
:1028B0000A90002801DB0A9801E00A9840420F9034
:1028C000BDF84E1013A84089081A0A90002801DBB1
:1028D0000A9801E00A9840420E900F9840430F90EA
:1028E0000E9840430E90DDE90E1008440590FDF768
:1028F00085FDCDE9060101F035FACDE90801FDF7C6
:10290000B7FD80B21190BDF85000BDF85810401AC4
:102910000A90002801DB0A9801E00A9840420F90D3
:1029200013A8C188C089081A0A90002801DB0A98F8
:1029300001E00A9840420E900F9840430F900E9885
:1029400040430E90DDE90E1008440590FDF756FD5A
:10295000CDE9060101F006FACDE90801FDF788FD91
:1029600080B210901098FDF744FD09901198FDF782
:1029700040FD08900999FDF783FC0A90FDF791FD51
:10298000CDE90C014FF066321A4BDDE90C01FDF781
:102990009BFD06D3184A194BDDE90C01FDF7ACFD90
:1029A00054D20020129012484088143880B20A9005
:1029B0000F480088143880B24FF6FF7209900A99C8
:1029C00000F038FA4FF478421421084600F032FA49
:1029D00000220B4BDDE90C01FDF790FC12E000003A
:1029E000180000201A000020C886000824000020DB
:1029F0001C0000206666EE3FCDCCCCCCCCCCF03FAA
:102A000000005940CDE90801FDF732FD80B213A95D
:102A10000A90C989BDF8582013AB5B89CDE9013212
:102A2000CDE90310BDF85400009013A8C0880990A8
:102A3000BDF850000890BDF84E000790BDF84C005E
:102A4000069007A90EC9FFF7F3FCC6E1BDF85000D8
:102A5000BDF85410401A0A90002801DB0A9801E0E2
:102A60000A9840420F9013A8C1884089081A0A901A
:102A7000002801DB0A9801E00A9840420E900F9866
:102A800040430F900E9840430E90DDE90E1008442D
:102A90000590FDF7B3FCCDE9060101F063F9CDE93E
:102AA0000801FDF7E5FC80B21190BDF84C00BDF8BF
:102AB0005810401A0A90002801DB0A9801E00A9891
:102AC00040420F90BDF84E1013A8C089081A0A9012
:102AD000002801DB0A9801E00A9840420E900F9806
:102AE00040430F900E9840430E90DDE90E100844CD
:102AF0000590FDF783FCCDE9060101F033F9CDE93E
:102B00000801FDF7B5FC80B210901098FDF771FC3C
:102B100009901198FDF76DFC08900999FDF7B0FB3D
:102B20000A90FDF7BEFCCDE90C014FF06632AD4BCB
:102B3000DDE90C01FDF7C8FC06D3AB4AAB4BDDE980
:102B40000C01FDF7D9FC40D200201290A848408823
:102B5000143880B20A90A6480088143880B24FF624
:102B6000FF7209900A9900F065F94FF47842142138
:102B7000084600F05FF900229E4BDDE90C01FDF7ED
:102B8000BDFBCDE90801FDF773FC80B213A90A90E3
:102B9000C989BDF8582013AB5B89CDE90132CDE975
:102BA0000310BDF85400009013A8C0880990BDF828
:102BB00050000890BDF84E000790BDF84C000690FC
:102BC00007A90EC9FFF734FC07E1BDF85000BDF8B6
:102BD0004C10401A0890FDF703FC0A9084480088C6
:102BE00028380890FDF7FCFB09900A99FDF748FB8F
:102BF00081498863BDF85000BDF84C100844059029
:102C0000FDF7EEFB06907C48806B01460590069828
:102C1000FDF704FB0890764800880690FDF7E9FB75
:102C200007900899FDF7F4FA4FF080410990FDF7FD
:102C300027FB0A90FDF7EFFB00B26F49A1F84000B7
:102C400013A84089BDF84E10401A0890FDF7C8FB44
:102C50000A906748408828380890FDF7C1FB099022
:102C60000A99FDF70DFB6449C86313A84089BDF8B4
:102C70004E1008440590FDF7B3FB06905E48C06B0C
:102C8000014605900698FDF7C9FA08905848408813
:102C90000690FDF7AEFB07900899FDF7B9FA4FF0E3
:102CA00080410990FDF7ECFA0A90FDF7B4FB00B201
:102CB0005149A1F842000846806B0890FDF7ABFB34
:102CC0000990002801DB099801E009984042022898
:102CD0000DDC4948C06B0890FDF79DFB0A90002869
:102CE00001DB0A9801E00A984042022842DD0020F8
:102CF00012903F484088143880B20A903C480088BF
:102D0000143880B24FF6FF7209900A9900F092F8D9
:102D10004FF478421421084600F08CF837A01021B7
:102D2000CDE90010324840880A9031480088099067
:102D300002461A2128200A9BFEF776FB2E4890F8BF
:102D4000440008B9012000E000202B4981F844002C
:102D5000084690F8440030B190202D490870D020EA
:102D60002C49087005E0D020294908709020294995
:102D7000087032E01F20284908804FF6FF70FEF7E8
:102D80000DF926A01021CDE90010194840880A90BD
:102D900017480088099002466E2123200A9BFEF7FF
:102DA00043FB4FF47A7000F0D1FE00F037FA4FF693
:102DB000FF70FEF7F3F817B000BD00BF0A2000F067
:102DC000C5FE0B98401C80B20B900B98B0F57A7F33
:102DD00002DD00F067F801E000BF2DE400BF00BF96
:102DE000E9E700006666EE3FCDCCCCCCCCCCF03F22
:102DF0001C00002000005940240000205450204EA8
:102E000065656420726561646A75737421000000F1
:102E10006C0000206D00002018000020546F7563C6
:102E2000682053637265656E2041646A757374200F
:102E30004F4B210070B504460D46164618480680D3
:102E400004F10D018AB2193988B22B462946FEF7E2
:102E5000FBF805F10D0083B2193881B222462046F5
:102E6000FEF7F2F86A1C91B2621C90B2FEF744F9C8
:102E70006A1C91B2621E90B2FEF73EF96A1E91B2D0
:102E8000621C90B2FEF738F96A1E91B2621E90B2CF
:102E9000FEF732F9062229462046FEF73DF970BDBD
:102EA0001800002070B5D520FDF7A0FC04460A2CC0
:102EB00044D10421C820FDF783FC04462046FDF7D9
:102EC0008FFA05461E49FDF7DBF91E498863042188
:102ED000CC20FDF775FC04462046FDF781FA054637
:102EE0001749FDF7CDF91749C8630221D020FDF736
:102EF00067FC00B21349A1F840000221D220FDF77F
:102F00005FFC00B20F49A1F84200D420FDF76EFC2F
:102F10000C4981F84400084690F8440030B19020F4
:102F200009490870D0200949087005E0D0200649F9
:102F30000870902005490870012070BD0020FCE752
:102F400020BCBE4C240000206C0000206D0000203E
:102F500008B501218820FEF741FB0220ADF80000F2
:102F600010208DF8030003208DF8020069462848E0
:102F7000FDF756FE02212648FDF7DDFE0420ADF8E0
:102F8000000048208DF8030069462148FDF748FEFF
:102F900004211F48FDF7CFFE4FF42060ADF800007C
:102FA00010208DF8030003208DF8020069461948AF
:102FB000FDF736FE4FF420611648FDF7BCFE4FF4D6
:102FC0008060ADF8000048208DF803006946114884
:102FD000FDF726FE4FF480610E48FDF7ACFE0E496A
:102FE000A1F1140000F0A2F8FDF7E6FBFFF75AFF8D
:102FF00008B1002008BD4FF6FF70FDF7CFFFFFF7C7
:10300000EBFA00F00BF9FFF74DFF0120F2E70000AB
:10301000000C0140001C01404400002070B5064631
:103020000025002400201E4908601E49C1F8A401A3
:103030001D490860304600F0B1F9062000F0ACFDF3
:1030400000201A49C1F88401012000F0A5FD0120EB
:103050001349086000F0A0FD00201449C1F8840164
:1030600000BF15E04FF6FF7000EA440400200C4951
:103070000860012000F090FD01200C49C1F8840196
:1030800007487C38006808B1601C84B2681CC5B26F
:10309000102DE7DB2411012003490860204670BD94
:1030A0008481214200802342AC812342008021425E
:1030B0002DE9F04194B080460027002406E0404608
:1030C000FFF7ACFF2DF81400601C84B2282CF6DB4F
:1030D000002416E0601C85B20FE03DF814003DF8B6
:1030E0001510884207DD3DF814603DF815002DF8F5
:1030F00014002DF81560681C85B2282DEDDB601CCE
:1031000084B2272CE6DB0027012404E03DF81400FC
:103110000744601C84B2272CF8DB2620B7FBF0F0B4
:1031200086B2304614B0BDE8F08100002DE9F041D0
:1031300004460D4607480078FFF7BAFF06460648E2
:103140000078FFF7B5FF074626802F800120BDE8F5
:10315000F08100006C0000206D0000207FB5044667
:103160000D4602A903A8FFF7E1FF064616B90020A5
:1031700004B070BD694601A8FFF7D8FF06460EB936
:103180000020F5E7BDF80400BDF80C10884206DC0D
:10319000BDF80C10BDF80400323081420CDBBDF8E4
:1031A0000C00BDF80410884236DCBDF80410BDF8F0
:1031B0000C00323081422FDABDF80000BDF8081053
:1031C000884206DCBDF80810BDF8000032308142AC
:1031D0000CDBBDF80800BDF8001088421CDCBDF80F
:1031E0000010BDF808003230814215DABDF80C102D
:1031F000BDF80420881800EBD071C1F34F01218085
:10320000BDF80810BDF80020881800EBD071C1F39C
:103210004F0129800120ABE70020A9E770B51B49C9
:10322000886B1B49FCF7FAFF0546FDF7F4F80446E6
:1032300004222146C820FDF705FB1449C86B144938
:10324000FCF7ECFF0546FDF7E6F8044604222146AC
:10325000CC20FDF7F7FA0D48B0F940100222D0203B
:10326000FDF7F0FA0948B0F942100222D220FDF72A
:10327000E9FA064890F84410D420FDF7F8FA0A2439
:103280002146D520FDF7F3FA70BD00002400002090
:1032900020BCBE4C2DE9F04104463E4800680028A1
:1032A00055D12CB13C49A1F11400FFF757FF3DE087
:1032B0003949A1F11400FFF751FFB8B3364920395D
:1032C000B1F94000FDF78CF8074633492039888969
:1032D000FDF78FF8804630482038816B4046FCF778
:1032E0009DFF06463946FCF741FF0546FDF7ACF861
:1032F000294920398881B1F94200FDF771F8074664
:1033000025492039088CFDF774F88046224820387A
:10331000C16B4046FCF782FF06463946FCF726FFA4
:103320000546FDF791F81C49203908841A482038D1
:1033300090F8340000F0800020BBC02016492039EE
:103340008886084681898182018C01851AE01248AD
:10335000203890F8340000F0800040B10E4820384A
:10336000808E20F080000C49203988860AE00021F8
:1033700009482038818201854FF6FF7006492039BF
:10338000888108840448203890F8340000F08000D8
:10339000BDE8F081288123424400002070B5044636
:1033A000002500BF17E004F0800018B101200B4990
:1033B000086002E00020094908606006040E002051
:1033C00007490860012000F0E7FB01200549C1F82A
:1033D0008401681CC5B2082DE5DB70BDA4812342C1
:1033E000848121420080214210B5002440F2255101
:1033F0000B4800F039F870B1094800F0F1F8C4B298
:103400002146074800F0F1F800BF4021044800F0D1
:103410001EF80128F9D14021014800F003F810BD41
:103420000038014001F40072B2F5007F00D100BF06
:10343000CA430280704721B1828942F400528281DE
:1034400004E082894DF6FF731A408281704702467C
:103450000020B1F5007F00D100BF13880B400BB1F5
:10346000012000E00020704770B5024600240023D0
:103470000025002040F66A16B14200D100BFC1F31A
:10348000421501F01F03012606FA03F3012D02D1B4
:103490009689334006E0022D02D1168A334001E0BE
:1034A000968A33400C12012606FA04F4168834403A
:1034B00013B10CB1012000E0002070BDF0B503464F
:1034C000002400260025002040F66A17B94200D1EA
:1034D00000BF1846C1F3421401F01F06012707FA86
:1034E00006F5012C01D10C3004E0022C01D1103082
:1034F00000E014301AB107682F43076002E0076844
:10350000AF430760F0BD00002DE9F04786B00546E7
:103510000E460024A24600BFA1460027B08900B194
:1035200000BF2F462C8A4CF6FF700440F0880443FD
:103530002C82AC894EF6F3100440B08831890843E0
:10354000718908430443AC81AC8A4FF6FF400440C4
:10355000B0890443AC8201A8FEF750F81F488742A7
:1035600002D1DDF810A001E0DDF80CA0A88900F47C
:10357000004040B10AEBCA0000EB0A103168490074
:10358000B0FBF1F807E00AEBCA0000EB0A10316863
:103590008900B0FBF1F86420B8FBF0F004012009C9
:1035A000642101FB1089A88900F4004040B1322059
:1035B00000EBC900B0FBF1F000F00700044308E0A5
:1035C000322000EB09106421B0FBF1F000F00F0095
:1035D00004432C8106B0BDE8F087000000380140AC
:1035E00001468888C0F308007047C1F30802828052
:1035F0007047000010B586B0044601210420FDF795
:10360000EDFF01218803FDF7E9FF4FF40070ADF8ED
:10361000140018208DF8170003208DF8160005A956
:103620001E48FDF7FDFA4FF48060ADF81400042049
:103630008DF8170005A91948FDF7F2FA019400204A
:10364000ADF80800ADF80A00ADF80C000C20ADF89C
:103650000E000020ADF8100001A91148FFF754FF3B
:1036600001210F48FFF7E7FE40210D48FFF7DAFE82
:10367000012240F225510A48FFF720FF25208DF84E
:10368000000003208DF801008DF8020001208DF864
:1036900003006846FDF738FF06B010BD0008014082
:1036A0000038014000BFFEE70FB4054B10B503A979
:1036B000044A029800F01EF810BC5DF814FB0000EC
:1036C000E53B0008A400002002E008C8121F08C162
:1036D000002AFAD170477047002001E001C1121F93
:1036E000002AFBD1704700000149086070470000C4
:1036F000A80000202DE9FF4F8DB00F46054600269B
:1037000006E025280BD0DDE90F1290476D1C761CD2
:1037100028780028F5D111B03046BDE8F08F00249C
:10372000A246A1460122E94900E0044315F8013F01
:10373000203B02FA03F00842F7D128782A2810D05B
:103740006FF02F022878A0F13001092914D80AEB74
:103750008A0102EB410144F0020400EB010A6D1CF6
:10376000F0E701CF5FEA000A03D544F40054CAF140
:10377000000A44F002046D1C28782E2817D115F891
:10378000010F44F004042A280ED06FF02F0228788D
:10379000A0F1300109290AD809EB890102EB4101A6
:1037A00000EB01096D1CF2E757F8049B6D1C2878AB
:1037B0006C280FD006DC4C2817D068280DD06A285A
:1037C00014D104E0742810D07A280FD10DE044F40D
:1037D00000140AE044F4801401E044F440146978D1
:1037E000814202D104F580146D1C6D1C28786E286E
:1037F0001ED00CDC632830D004DC00288BD0582885
:1038000011D19FE0642867D069280CD164E0732847
:103810002DD004DC6F2872D0702804D194E0752874
:103820006ED078286DD0DDE90F129047761C4BE101
:10383000C4F30250022806D0032809D0042801CF7F
:1038400009D0066040E101CFF117C0E900613BE11A
:1038500001CF068038E1067036E117F8040B8DF8C9
:10386000000000208DF80100EB46012003E057F82E
:1038700004BB4FF0FF3061074FF0000102D40DE0B0
:1038800008F10101884649450FDA8045F8DB1BF84D
:1038900008100029F4D108E008F1010188468142AE
:1038A000FADB1BF808100029F6D1DDE90F23AAEB9B
:1038B00008008146214600F031F9304400EB08064B
:1038C00004E0DDE90F121BF8010B9047B8F1010885
:1038D000F7D221464846F2E00A21C4F302524FF0E3
:1038E000000B0891022A04D001CFC117032A09D086
:1038F0000AE0FF1D27F00707F7E8020108E02CE0C7
:103900001EE01FE000B2C117042A01D140B2C11766
:10391000021E71F1000206DA0023D0EB030063EB14
:1039200001012D2202E0220504D52B228DF824204E
:10393000012203E0E20701D02022F7E7904653E09E
:103940000A210BE0102109E010214FF0000B44F098
:1039500004044FF00809089103E008214FF0000B20
:103960000891C4F30252022A04D001CF0021032A95
:1039700006D006E0FF1D27F00707F7E8020103E085
:1039800080B2042A00D1C0B24FF0000822072BD524
:103990002A78702A07D0DDF820C08CF0100C5CEA81
:1039A0000B0C05D00EE040228DF82420012208E007
:1039B00050EA010306D030238DF824308DF82520FD
:1039C00002229046089B83F0080353EA0B030BD1B5
:1039D00050EA010201D1620706D530228DF8242079
:1039E0004FF00108A9F101092A78582A04D038A219
:1039F0000B9208AA0A920BE03AA2F9E75B46089AF2
:103A0000FCF792FD0B9B9B5C0A9A521E0A92137064
:103A100050EA0102F2D10A98ADEB000000F1200B50
:103A2000600702D524F4803401E04FF00109D94544
:103A300002DDA9EB0B0000E0002000EB0B0141448C
:103A40000890AAEB010AE00306D4DDE90F23214622
:103A5000504600F063F806444FF0000908E009A959
:103A600011F80900DDE90F12904709F10109761CF0
:103A7000C145F4DBE0030CD5DDE90F2321465046B8
:103A800000F04CF8064404E0DDE90F1230209047C6
:103A9000761C0899481E08900029F5DC08E00A9871
:103AA0000A990078491C0A91DDE90F129047761CAB
:103AB000BBF10001ABF1010BF1DC21465046DDE921
:103AC0000F2300F019F806446D1C21E609280100B7
:103AD0003031323334353637383961626364656684
:103AE0000000000030313233343536373839414246
:103AF00043444546000000002DE9F04104460025FE
:103B00001E461746880404D405E039462020B047F5
:103B10006D1C641EF9D52846BDE8F0812DE9F04101
:103B2000044600251E469046C80301D5302700E014
:103B30002027880404D505E041463846B0476D1C6F
:103B4000641EF9D52846BDE8F08100000146114AFF
:103B500012884A434FF0E0235A6100229A611A46C4
:103B6000126942F001021A6100BF4FF0E0221069B1
:103B700000F001021AB100F48032002AF5D04FF0B3
:103B8000E022126922F001024FF0E0231A610022C4
:103B90009A617047160000200146114A12784A4384
:103BA0004FF0E0235A6100229A611A46126942F0EE
:103BB00001021A6100BF4FF0E022106900F001021B
:103BC0001AB100F48032002AF5D04FF0E0221269D9
:103BD00022F001024FF0E0231A6100229A6170473F
:103BE0001400002070B504460D46E1B20548FFF709
:103BF000FCFC00BF80210348FFF729FC0028F9D016
:103C0000204670BD0038014086B00024FEF702FA5D
:103C10001DA0FFF749FD3220352109230B22CDE9F4
:103C20000010062140F2E570FDF7CCFE2BE0641C8D
:103C30001420B4FBF0F100FB114038B918480068BB
:103C400008B9012000E000201549086002A8FDF72E
:103C500099FDDDE90201CDE904019DF816009DF80A
:103C600015109DF81420CDE9002102909DF8133025
:103C70009DF81220BDF810100AA0FFF715FD4FF4B3
:103C80007A70FFF763FFD2E7CAE4C8EBC4EAD4C294
:103C9000C8D5CAB1B7D6C3EB3A200D0A0000000060
:103CA00094812142256420C4EA20256420D4C220C6
:103CB000256420C8D520256420CAB1202564202091
:103CC000B7D620256420C3EB200D0A0010B50446AA
:103CD0000C4951F824200C4951F82400002100F02F
:103CE00037F80A4951F824104A000749083151F8B9
:103CF0002400002100F02CF8012103481030015568
:103D000010BD0000DC86000884000020CC8600087E
:103D100010B501460023002207E00B4850F82100AF
:103D200030F8120000B15B1C521C084850F821000A
:103D30009042F2D864205843044C54F82140B0FB20
:103D4000F4F0C0B210BD00008C000020CC8600084A
:103D500030B5034601E003F8011B141EA2F1010275
:103D6000F9D130BD2DE9F04106460F46FCF7C0FC05
:103D7000041E0D4618BF0120284320F00040C0F16A
:103D80007F6000F1E040C00F0ED0301C18BF012052
:103D9000384320F00040C0F17F6000F1E040C00FE8
:103DA00004BF0120FFF7A0FC20462946BDE8F081B2
:103DB0000000000000000000000000000000000003
:103DC0003F400000000000000000300040003000D4
:103DD0004000000009000BC03D000BC03D00090081
:103DE00018C024407FE0224031800000180024C029
:103DF0001B000D803240018003801C4027401C8046
:103E000007400040100060000000000000000000BB
:103E10000000000000001F802040402000004020E3
:103E200020401F8000000000090006001F800600DF
:103E300009000000040004003F80040004000000AA
:103E400000100060000000000000000004000400FA
:103E50000400040004000000000000400000000016
:103E600000000000002001C00600380040000000F3
:103E70001F802040204020401F8000000000104094
:103E80003FC000400000000018C0214022402440F4
:103E90001840000010802040244024401B80000077
:103EA00002000D0011003FC0014000003C80244092
:103EB00024402440238000001F80244024403440BC
:103EC000038000003000200027C0380020000000E0
:103ED0001B802440244024401B8000001C0022C082
:103EE000224022401F800000000000000840000027
:103EF000000000000000000004600000000000005E
:103F0000000004000A001100208040400900090060
:103F10000900090009000000000040402080110055
:103F20000A000400180020002340240018000000AC
:103F30001F802040274029401F400000004007C04C
:103F400039000F0001C0004020403FC02440244001
:103F50001B8000001F802040204020403080000057
:103F600020403FC0204020401F80000020403FC034
:103F700024402E4030C0000020403FC024402E008E
:103F8000300000000F0010802040224033800200EB
:103F900020403FC0040004003FC02040204020409B
:103FA0003FC02040204000000060202020203FC073
:103FB0002000200020403FC024400B0030C02040A3
:103FC00020403FC020400040004000C03FC03C00B7
:103FD00003C03C003FC0000020403FC00C40230015
:103FE0003FC020001F802040204020401F80000054
:103FF00020403FC024402400180000001F802140C2
:10400000214020E01FA0000020403FC024402600A7
:1040100019C0004018C024402440224031800000D4
:10402000300020403FC020403000000020003F8092
:10403000004000403F80200020003E0001C00700FB
:1040400038002000380007C03C0007C038000000DE
:10405000204039C0060039C0204000002000384010
:1040600007C0384020000000304021C026403840C2
:1040700020C00000000000007FE040204020000041
:10408000000070000C000380004000000000402091
:1040900040207FE0000000000000200040002000E1
:1040A00000000000001000100010001000100010B0
:1040B000000000004000000000000000000002803E
:1040C0000540054003C0004020003FC004400440BC
:1040D000038000000000038004400440064000000C
:1040E00000000380044024403FC0004000000380E3
:1040F0000540054003400000000004401FC024406C
:1041000024402000000002E0055005500650042025
:1041100020403FC00440040003C0004000000440B1
:1041200027C000400000000000100010041027E02D
:104130000000000020403FC00140070004C00440D0
:10414000204020403FC000400040000007C0040065
:1041500007C0040003C00000044007C0044004007E
:1041600003C00040000003800440044003800000BE
:10417000041007F004500440038000000000038096
:104180000440045007F00010044007C0024004003F
:1041900004000000000006400540054004C0000087
:1041A000000004001F80044000400000040007805D
:1041B0000040044007C000400400070004C0018024
:1041C00006000400060001C0070001C00600000050
:1041D000044006C0010006C004400000041007109F
:1041E00004E00180060004000000044005C0064011
:1041F000044000000000000004007BE040200000BC
:10420000000000000000FFF000000000000040205F
:104210007BE004000000000040008000400020001F
:10422000200040000000000000000000000000002E
:10423000000000000000000000001FCC000C000087
:10424000000000000000080030006000080030009E
:1042500060000000022003FC1E20022003FC1E2040
:104260000220000000000E1811043FFF10840C789B
:10427000000000000F0010840F3800C00778188479
:104280000078000000780F8410C411240E9800E418
:1042900000840008080068007000000000000000B2
:1042A0000000000000000000000007E018182004D3
:1042B00040020000000040022004181807E000003F
:1042C000000000000240024001800FF00180024027
:1042D000024000000080008000800FF80080008015
:1042E000008000000001000D000E00000000000032
:1042F000000000000000008000800080008000803E
:10430000008000800000000C000C00000000000095
:104310000000000000000006001800600180060098
:1043200018002000000007F0080810041004080816
:1043300007F000000000080408041FFC000400044B
:104340000000000000000E0C101410241044118412
:104350000E0C000000000C18100411041104128847
:104360000C700000000000E00320042408241FFC5F
:104370000024000000001F9810841104110410880C
:1043800010700000000007F008881104110418885C
:104390000070000000001C00100010FC13001C0046
:1043A0001000000000000E381144108410841144E5
:1043B0000E38000000000700088C104410440888E4
:1043C00007F00000000000000000030C030C0000D8
:1043D00000000000000000000001010600000000D5
:1043E00000000000000000800140022004100808C6
:1043F00010040000022002200220022002200220DD
:1044000002200000000010040808041002200140EF
:104410000080000000000E001200100C106C1080D4
:104420000F00000003E00C1813E4142417C408283C
:1044300007D000000004003C03C41C40074000E417
:10444000001C000410041FFC1104110411040E8848
:104450000070000003E00C18100410041004100891
:104460001C10000010041FFC1004100410040808A5
:1044700007F0000010041FFC1104110417C41004FD
:104480000818000010041FFC1104110017C01000D0
:104490000800000003E00C181004100410441C78FD
:1044A0000040000010041FFC108400800080108475
:1044B0001FFC10040000100410041FFC1004100462
:1044C0000000000000030001100110011FFE100099
:1044D0001000000010041FFC110403801464181C59
:1044E0001004000010041FFC100400040004000469
:1044F000000C000010041FFC1F0000FC1F001FFC2C
:104500001004000010041FFC0C04030000E010184D
:104510001FFC100007F0080810041004100408081D
:1045200007F0000010041FFC108410801080108021
:104530000F00000007F0081810241024101C080AAF
:1045400007F2000010041FFC1104110011C011300B
:104550000E0C000400000E1C110410841084104482
:104560001C3800001800100010041FFC100410007C
:104570001800000010001FF81004000400041004CC
:104580001FF8100010001E0011E0001C00701380C6
:104590001C0010001FC0103C00E01F0000E0103C99
:1045A0001FC000001004180C163401C001C01634DE
:1045B000180C100410001C00130400FC13041C0051
:1045C000100000000804101C1064108413041C0464
:1045D000101800000000000000007FFE40024002B2
:1045E00040020000000030000C0003800060001C4E
:1045F0000003000000004002400240027FFE000075
:1046000000000000000000002000400040004000CA
:104610002000000000010001000100010001000174
:1046200000010001000040004000200000000000E8
:1046300000000000000000980124014401440144EE
:1046400000FC000410001FFC008801040104008825
:1046500000700000000000700088010401040104E3
:1046600000880000000000700088010401041108A7
:104670001FFC0004000000F801440144014401440F
:1046800000C800000000010401040FFC1104110423
:1046900011001800000000D601290129012901C9D3
:1046A0000106000010041FFC008401000100010449
:1046B00000FC000400000104190419FC00040004BB
:1046C000000000000000000300010101190119FEB3
:1046D0000000000010041FFC0024004001B4010C85
:1046E000010400000000100410041FFC000400047A
:1046F00000000000010401FC0104010001FC0104B0
:10470000010000FC010401FC00840100010001041F
:1047100000FC0004000000F801040104010401048D
:1047200000F80000010101FF008501040104008878
:104730000070000000000070008801040104010501
:1047400001FF00010104010401FC008401040100D7
:1047500001800000000000CC012401240124012478
:104760000198000000000100010007F801040104A5
:1047700000000000010001F800040004000401082A
:1047800001FC0004010001800170000C00100160B8
:104790000180010001F0010C003001C00030010C6B
:1047A00001F0010000000104018C00740170018C13
:1047B00001040000010101810171000E0018016077
:1047C0000180010000000184010C013401440184D6
:1047D000010C0000000000000000000001003EFC91
:1047E000400240020000000000000000FFFF000047
:1047F000000000000000400240023EFC01000000FA
:1048000000000000000060008000800040004000C8
:104810002000200000000000000000000000000058
:104820000000000000000000000000000000000088
:104830000000000000000000000000000000000078
:10484000000000000000000F80380FFE380F803895
:104850000000000000000000000000000000000058
:1048600000000100000600000C00003800003100CC
:10487000000600000C0000380000300000000000BE
:104880000000000061800067F807F9800061800087
:1048900061800061800061800067F807F980006135
:1048A0008000000000000000000001C0E003E0F014
:1048B0000630080418081FFFFE040E080787F003DF
:1048C00081E000000000000001F000060C0004047C
:1048D00008060C7001F9C0000E00003BE000EC1867
:1048E000070808040C180003E00000000001E000C5
:1048F00007F003F818041C0804170807E1D003C0E8
:10490000E00023B0003C0800200800001000000078
:104910000000000100003100003200001C00000017
:104920000000000000000000000000000000000087
:104930000000000000000000000000000000000077
:10494000000000007F0001FFC00780F00C0018107D
:1049500000042000020000000000002000021000FF
:10496000040C00180780F001FFC0007F0000000069
:104970000000000000000000000000000000000037
:104980004200006600006600003C0000180003FFC3
:10499000C0001800003C00006600006600004200F5
:1049A00000000000080000080000080000080000E7
:1049B000080001FFC000080000080000080000080F
:1049C000000008000000000000010000310000327B
:1049D00000001C00000000000000000000000000BB
:1049E00000000000000000000000000008000008B7
:1049F000000008000008000008000008000008008F
:104A0000000800000800000800000000000000008E
:104A100000000000380000380000380000000000EE
:104A20000000000000000000000000000000000086
:104A300000000000000600001C0000700001800063
:104A40000E0000380000C0000700001C000030000D
:104A500000000000000000007F8001FFE003807084
:104A600006001804000804000806001803807001FE
:104A7000FFE0007F80000000000000000000010057
:104A80000801000801000803FFF807FFF80000080C
:104A90000000080000080000000000000000000105
:104AA000C03802C058040098040118040218040415
:104AB00018061C1803F81801E0F8000000000000B8
:104AC00000000001C0E003C0F0040008040808046E
:104AD000080806180803F41801E7F00001E00000D8
:104AE00000000000000000000300000D00001100A5
:104AF00000610000810803010807FFF80FFFF800BC
:104B000001080001080000000000000000E007FCB0
:104B1000D0060808061008061008061008061838FF
:104B2000060FF00607C000000000000000000000B3
:104B30003F8001FFE00384300208180410080410CD
:104B400008041008071810030FF00007C000000049
:104B500000000000000003C000070000060000067F
:104B600000F80607F806180006E000070000060037
:104B70000000000000000001E1E003F7F00634103F
:104B8000041808041808040C08040C080616180376
:104B9000F3F001C1E000000000000000F80003FC99
:104BA0003003063804020804020804020804041052
:104BB0000308F001FFC0007F0000000000000000BB
:104BC00000000000000000000000000070380070CD
:104BD00038007038000000000000000000000000F5
:104BE00000000000000000000000000000000000C5
:104BF000301A00301C00000000000000000000001F
:104C00000000000000000000000000080000140088
:104C100000220000410000808001004002002004CA
:104C20000010080008000000000000002100002122
:104C300000002100002100002100002100002100CF
:104C40000021000021000021000000000000000001
:104C5000000008000804001002002001004000804D
:104C60008000410000220000140000080000000045
:104C700000000003C00004C0000400000800380861
:104C80000F380808380810000C300007E00003C097
:104C900000000000000000003F8000FFE003807083
:104CA000020F1006708804C088048308047F8802FD
:104CB000C09003012000FE40000008000018000121
:104CC000F8003E0801C20007020007E20000FE00F3
:104CD000001FC80001F800003800000804000807A1
:104CE000FFF807FFF8040808040808040808040887
:104CF0000806180803F41801E7F00001E0000000BE
:104D0000000000003F8001FFE003807002001804F3
:104D100000080400080400080400100600200780B2
:104D2000C000000004000807FFF807FFF8040008AF
:104D30000400080400080400180200100380700139
:104D4000FFE0007F8000000004000807FFF807FF75
:104D5000F8040808040808040808040808043E08C1
:104D600004000806001801006000000004000807A5
:104D7000FFF807FFF8040808040800040800040806
:104D800000043E0006000006000001800000000054
:104D9000000000003F8001FFE0038070060018045F
:104DA00000080402080402080203F00783F000026E
:104DB0000000020004000807FFF807FFF8040808D5
:104DC00000080000080000080000080004080807A8
:104DD000FFF807FFF80400080000000000000400CE
:104DE0000804000804000807FFF807FFF80400089B
:104DF000040008040008000000000000000000009B
:104E00000006000007000001040001040001040086
:104E10000307FFFE07FFFC0400000400000400007D
:104E200004000807FFF807FFF8040C08001800004A
:104E30003E0004C7800503C80600F80400380400DB
:104E40001800000804000807FFF807FFF80400082E
:104E5000000008000008000008000008000008002A
:104E6000001800006000000004000807FFF8078039
:104E70000807FC00007FC00003F80007C0007800AE
:104E800007800807FFF807FFF80400080400080778
:104E9000FFF807000803C00000E000003800001E13
:104EA000000007000001C00400F007FFF804000044
:104EB000000000007F8001FFE003807006001804FE
:104EC000000804000806001803003001FFE0007F1E
:104ED0008000000004000807FFF807FFF80404083A
:104EE000040400040400040400040400060C00038D
:104EF000F80001F000000000000000007F8001FFCA
:104F0000E00380700600880400880400C806003CA6
:104F100003003E01FFE6007F840000000400080754
:104F2000FFF807FFF8040808040800040C00040F49
:104F300000040BC00610F003F03801E00800000880
:104F400000000001E0F803F03006301004180804F7
:104F50001808040C08040C080206180207F0078160
:104F6000E0000000018000060000040000040000D2
:104F700004000807FFF807FFF80400080400000415
:104F8000000006000001800004000007FFE007FFAA
:104F9000F0040018000008000008000008000008E5
:104FA00000000804001007FFE004000004000006F1
:104FB000000007E00007FE00041FE00001F8000009
:104FC000380001E0043E0007C000060000040000B5
:104FD00004000007E00007FFC0041FF80007C00737
:104FE000F80007FF80043FF80007C004F80007003E
:104FF0000004000000000004000806001807C07844
:1050000005F1C8003E00001F800463E80780F80631
:1050100000180400080000000400000600000780DB
:105020000007E008047C08001FF80007F8001808D3
:1050300004E0080700000600000400000000000172
:1050400000080600380400F80403E8040F08047C94
:105050000805F00807C008070018040060000000F9
:105060000000000000000000000000000000003F01
:10507000FFFE20000220000220000220000220008B
:10508000020000000000000000000800000700000F
:1050900000C0000038000006000001C00000300021
:1050A000000E0000010000000000000000002000D1
:1050B000022000022000022000022000023FFFFE2A
:1050C00000000000000000000000000000000000E0
:1050D0000000000000080000100000300000200068
:1050E0000030000010000008000000000000000078
:1050F00000000100000100000100000100000100AB
:10510000000100000100000100000100000100009A
:10511000010000010000000000000000002000006D
:10512000200000100000100000000000000000003F
:1051300000000000000000000000000000F0001966
:10514000F8001B180022080026080024080024107C
:10515000003FF8001FF800000800001800000004DD
:10516000000007FFF80FFFF00018180010080020DB
:1051700008002008003018001FF0000FC0000000D9
:105180000000000007C0001FF000183000200800D9
:105190002008002008003C08001C100000600000EF
:1051A000000000000000000007C0001FF0003818D9
:1051B00000200800200800200804101007FFF80F46
:1051C000FFF00000100000000000000000000007D9
:1051D000C0001FF000123000221800220800220830
:1051E000003208001E10000E200000000000000029
:1051F000200000200800200801FFF803FFF8062027
:105200000804200804200807200003000000000014
:1052100000000000000E000E6E001FF30031B10010
:1052200020B10020B1003191001F13002E1E00207C
:105230000E00300000000004000807FFF80FFFF820
:10524000001008002000002000002008003FF800A7
:105250001FF800000800000000000000000000200F
:1052600008002008002008063FF8063FF800000864
:10527000000008000008000000000000000000001E
:1052800000000000030000030020010020010020B6
:1052900003063FFE063FFC00000000000000000087
:1052A00000000004000807FFF80FFFF80001880065
:1052B0000300002FC00038F800203800200800004C
:1052C00008000000000000000000040008040008BE
:1052D00004000807FFF80FFFF800000800000800AE
:1052E0000008000000000000002008003FF8003F18
:1052F000F8001008002000003FF8003FF8001008F8
:10530000002000003FF8003FF80000080000000007
:105310002008003FF8003FF80010080010000020AF
:1053200000002008003FF8001FF8000008000000FF
:105330000000000007C0000FF00018300030080027
:105340002008002008003008001830000FF0000787
:10535000C0000000000000002001003FFF003FFFF0
:10536000001011002009002008002008003038003B
:105370001FF0000FC00000000000000007C0001F69
:10538000F000381800200800200800200900101143
:10539000001FFF003FFF0000010000000020080088
:1053A0002008002008003FF8003FF800080800101F
:1053B000080020080020000030000030000000003D
:1053C000000000000000000C78001E1800330800E8
:1053D00023080021080021880021980030F00038BF
:1053E00060000000000000002000002000002000FD
:1053F00000FFF003FFF8002008002008002008004C
:105400000030000000000000000000002000003F0D
:10541000F0007FF8000018000008000008002010CD
:10542000003FF8007FF000001000000000000000C6
:105430002000003000003C00003F800023F000000E
:1054400078000070002380003C0000300000200045
:10545000002000003C00003FE00023F80000E000D6
:105460002700003E00003FE00021F80001E0003E80
:10547000000020000000000020080020080038384C
:10548000003E680027800003C8002CF80038380070
:10549000201800200800000000000000200000305C
:1054A00003003C01003F830023EC000070002380D8
:1054B000003C000020000020000000000000000070
:1054C00000000038080020380020F80023E8002FF2
:1054D00088003E0800380800201800007000000016
:1054E00000000000000000000000000000000000BC
:1054F00008000014001FF7FC300006200002000026
:10550000000000000000000000000000000000009B
:10551000000000000000FFFFFF000000000000008E
:10552000000000000000000000000000000020005B
:10553000023000061FF7FC00140000080000000005
:105540000000000000000000000000000000001843
:10555000000060000040000040000020000010003B
:10556000000800000400000400000C00001000000F
:10557000000000000000000000000000000000002B
:10558000000000000000000000000000000000001B
:10559000000000000000000000000000000000000B
:1055A00000000000000000000000000000000000FB
:1055B00000000000000000000000000000000000EB
:1055C00000000000000000000000000000000000DB
:1055D00000000000000000000000000000000000CB
:1055E00000000000000000000000000000000000BB
:1055F00000000000000000000000000000000000AB
:10560000000000000000000007F000C007FFE1E01C
:1056100007F001E0000000C00000000000000000F2
:10562000000000000000000000000000000000007A
:10563000000000000000000000000000000000006A
:10564000000000000000000000000000000000005A
:10565000000000000000000000000000000000004A
:10566000000000000000000000000000000000003A
:1056700000000000000000000020000001C0000049
:10568000078000001F0000001E0000001C2000001A
:1056900001C00000078000001F0000001E00000085
:1056A0001C000000000000000000000000000000DE
:1056B00000000000000000000000000000000000EA
:1056C00000000000000000000000000000000000DA
:1056D00000000000000000000000000000000000CA
:1056E00000000000000000000000000000000000BA
:1056F0000000000000180C0000180C0000180FE05B
:10570000001FFC0003F80C0000180C0000180C002F
:1057100000180C0000180C0000180FE0001FFC001F
:1057200003F80C0000180C0000180C00000000002A
:105730000000000000000000000000000000000069
:105740000000000000000000000000000000000059
:105750000000000000000000000000000000000049
:105760000000000000000000000000000000000039
:10577000000000000000000000000780007807C063
:1057800000FC0640010E00200307002002038020D9
:105790000FFFFFFC0201C0200200E06001307040FA
:1057A00001F03F8000F01F0000000000000000003A
:1057B00000000000000000000000000000000000E9
:1057C00000000000000000000000000000000000D9
:1057D00000000000000000000000000000000000C9
:1057E00000000000000000000000000000000000B9
:1057F00000FE000001FF0000030180000200806045
:10580000030181C001FF070000FE18000000E00056
:105810000003BF00000CFFC00071806001C10020C8
:10582000030180600000FFC000003F000000000096
:105830000000000000000000000000000000000068
:105840000000000000000000000000000000000058
:105850000000000000000000000000000000000048
:105860000000000000000000000000000000000038
:1058700000001F0000007FC000FCC0C001FF80606E
:105880000303E0200202782002061E2003FC0740EA
:1058900001F00380000103C000011C600001E02052
:1058A0000001002000010040000001800000000015
:1058B00000000000000000000000000000000000E8
:1058C00000000000000000000000000000000000D8
:1058D00000000000000000000000000000000000C8
:1058E00000000000000000000000000000000000B8
:1058F00000000000002000001C6000001C400000B0
:105900001F8000000F0000000000000000000000E9
:105910000000000000000000000000000000000087
:105920000000000000000000000000000000000077
:105930000000000000000000000000000000000067
:105940000000000000000000000000000000000057
:105950000000000000000000000000000000000047
:105960000000000000000000000000000000000037
:105970000000000000000000000000000000000027
:105980000000000000000000000000000007F80018
:10599000003FFF00007807C001C000E003000030B6
:1059A00004000008080000041000000200000000CD
:1059B00000000000000000000000000000000000E7
:1059C00000000000000000000000000000000000D7
:1059D00000000000000000000000000000000000C7
:1059E00000000000000000000000000000000000B7
:1059F000000000001000000208000004040000087D
:105A00000300003001C000E0007807C0003FFF0045
:105A10000007F80000000000000000000000000087
:105A20000000000000000000000000000000000076
:105A30000000000000000000000000000000000066
:105A40000000000000000000000000000000000056
:105A50000000000000000000000000000000000046
:105A60000000000000000000000000000000000036
:105A70000000000000000000000C1800000E3800BC
:105A8000000E380000063000000360000061438013
:105A900000FFFF800061430000036000000630004B
:105AA000000E3800000E3800000C18000000000046
:105AB00000000000000000000000000000000000E6
:105AC00000000000000000000000000000000000D6
:105AD00000000000000000000000000000000000C6
